{
  "_format": "hh-sol-artifact-1",
  "contractName": "FheSalarySystem",
  "sourceName": "contracts/FheSalarySystem.sol",
  "abi": [
    {
      "inputs": [
        {
          "internalType": "address",
          "name": "_salaryToken",
          "type": "address"
        }
      ],
      "stateMutability": "nonpayable",
      "type": "constructor"
    },
    {
      "inputs": [],
      "name": "ContractPaused",
      "type": "error"
    },
    {
      "inputs": [],
      "name": "EmployeeExists",
      "type": "error"
    },
    {
      "inputs": [],
      "name": "EmployeeNotFound",
      "type": "error"
    },
    {
      "inputs": [],
      "name": "InsufficientContractBalance",
      "type": "error"
    },
    {
      "inputs": [],
      "name": "InsufficientEmployeeBalance",
      "type": "error"
    },
    {
      "inputs": [],
      "name": "MismatchedArrays",
      "type": "error"
    },
    {
      "inputs": [],
      "name": "NotAdmin",
      "type": "error"
    },
    {
      "inputs": [],
      "name": "NotEmployee",
      "type": "error"
    },
    {
      "inputs": [
        {
          "internalType": "bytes32",
          "name": "handle",
          "type": "bytes32"
        },
        {
          "internalType": "address",
          "name": "sender",
          "type": "address"
        }
      ],
      "name": "SenderNotAllowedToUseHandle",
      "type": "error"
    },
    {
      "anonymous": false,
      "inputs": [
        {
          "indexed": false,
          "internalType": "uint256",
          "name": "step",
          "type": "uint256"
        }
      ],
      "name": "DebugStep",
      "type": "event"
    },
    {
      "anonymous": false,
      "inputs": [
        {
          "indexed": true,
          "internalType": "address",
          "name": "employee",
          "type": "address"
        }
      ],
      "name": "EmployeeAdded",
      "type": "event"
    },
    {
      "anonymous": false,
      "inputs": [
        {
          "indexed": true,
          "internalType": "address",
          "name": "employee",
          "type": "address"
        },
        {
          "indexed": true,
          "internalType": "uint256",
          "name": "recordIndex",
          "type": "uint256"
        }
      ],
      "name": "SalarySent",
      "type": "event"
    },
    {
      "anonymous": false,
      "inputs": [
        {
          "indexed": true,
          "internalType": "address",
          "name": "employee",
          "type": "address"
        },
        {
          "indexed": false,
          "internalType": "bytes32",
          "name": "swapId",
          "type": "bytes32"
        }
      ],
      "name": "WithdrawalRequested",
      "type": "event"
    },
    {
      "inputs": [
        {
          "internalType": "address",
          "name": "_wallet",
          "type": "address"
        },
        {
          "internalType": "string",
          "name": "_name",
          "type": "string"
        },
        {
          "internalType": "string",
          "name": "_email",
          "type": "string"
        },
        {
          "internalType": "string",
          "name": "_homeAddress",
          "type": "string"
        }
      ],
      "name": "addEmployee",
      "outputs": [],
      "stateMutability": "nonpayable",
      "type": "function"
    },
    {
      "inputs": [],
      "name": "admin",
      "outputs": [
        {
          "internalType": "address",
          "name": "",
          "type": "address"
        }
      ],
      "stateMutability": "view",
      "type": "function"
    },
    {
      "inputs": [],
      "name": "authorizeContract",
      "outputs": [],
      "stateMutability": "nonpayable",
      "type": "function"
    },
    {
      "inputs": [
        {
          "internalType": "address[]",
          "name": "_employees",
          "type": "address[]"
        },
        {
          "internalType": "externalEuint64[]",
          "name": "encryptedAmounts",
          "type": "bytes32[]"
        },
        {
          "internalType": "bytes[]",
          "name": "inputProofs",
          "type": "bytes[]"
        }
      ],
      "name": "batchSendEncryptedSalary",
      "outputs": [],
      "stateMutability": "nonpayable",
      "type": "function"
    },
    {
      "inputs": [
        {
          "internalType": "address",
          "name": "_employees",
          "type": "address"
        },
        {
          "internalType": "externalEuint64",
          "name": "encryptedAmounts",
          "type": "bytes32"
        },
        {
          "internalType": "bytes",
          "name": "inputProofs",
          "type": "bytes"
        }
      ],
      "name": "sendEncryptedSalaryTest",
      "outputs": [],
      "stateMutability": "nonpayable",
      "type": "function"
    },
    {
      "inputs": [],
      "name": "contractEncryptedBalance",
      "outputs": [
        {
          "internalType": "euint64",
          "name": "",
          "type": "bytes32"
        }
      ],
      "stateMutability": "view",
      "type": "function"
    },
    {
      "inputs": [],
      "name": "contractPaused",
      "outputs": [
        {
          "internalType": "bool",
          "name": "",
          "type": "bool"
        }
      ],
      "stateMutability": "view",
      "type": "function"
    },
    {
      "inputs": [
        {
          "internalType": "euint64",
          "name": "amount",
          "type": "bytes32"
        }
      ],
      "name": "depositTokens",
      "outputs": [],
      "stateMutability": "nonpayable",
      "type": "function"
    },
    {
      "inputs": [
        {
          "internalType": "externalEuint64",
          "name": "encryptedAmount",
          "type": "bytes32"
        },
        {
          "internalType": "bytes",
          "name": "inputProof",
          "type": "bytes"
        }
      ],
      "name": "depositTokensEncrypted",
      "outputs": [],
      "stateMutability": "nonpayable",
      "type": "function"
    },
    {
      "inputs": [
        {
          "internalType": "uint256",
          "name": "",
          "type": "uint256"
        }
      ],
      "name": "employeeList",
      "outputs": [
        {
          "internalType": "address",
          "name": "",
          "type": "address"
        }
      ],
      "stateMutability": "view",
      "type": "function"
    },
    {
      "inputs": [
        {
          "internalType": "address",
          "name": "",
          "type": "address"
        }
      ],
      "name": "employees",
      "outputs": [
        {
          "internalType": "string",
          "name": "name",
          "type": "string"
        },
        {
          "internalType": "string",
          "name": "email",
          "type": "string"
        },
        {
          "internalType": "string",
          "name": "homeAddress",
          "type": "string"
        },
        {
          "internalType": "bool",
          "name": "isExist",
          "type": "bool"
        },
        {
          "internalType": "bool",
          "name": "hasNft",
          "type": "bool"
        },
        {
          "internalType": "bool",
          "name": "hasTierNft",
          "type": "bool"
        }
      ],
      "stateMutability": "view",
      "type": "function"
    },
    {
      "inputs": [],
      "name": "getAllEmployees",
      "outputs": [
        {
          "components": [
            {
              "internalType": "address",
              "name": "walletAddress",
              "type": "address"
            },
            {
              "components": [
                {
                  "internalType": "string",
                  "name": "name",
                  "type": "string"
                },
                {
                  "internalType": "string",
                  "name": "email",
                  "type": "string"
                },
                {
                  "internalType": "string",
                  "name": "homeAddress",
                  "type": "string"
                },
                {
                  "internalType": "bool",
                  "name": "isExist",
                  "type": "bool"
                },
                {
                  "internalType": "bool",
                  "name": "hasNft",
                  "type": "bool"
                },
                {
                  "internalType": "bool",
                  "name": "hasTierNft",
                  "type": "bool"
                }
              ],
              "internalType": "struct FheSalarySystem.Employee",
              "name": "employee",
              "type": "tuple"
            }
          ],
          "internalType": "struct FheSalarySystem.EmployeeWithAddress[]",
          "name": "",
          "type": "tuple[]"
        }
      ],
      "stateMutability": "view",
      "type": "function"
    },
    {
      "inputs": [],
      "name": "getAllSalaryRecords",
      "outputs": [
        {
          "components": [
            {
              "internalType": "address",
              "name": "employee",
              "type": "address"
            },
            {
              "internalType": "euint64",
              "name": "encryptedAmount",
              "type": "bytes32"
            },
            {
              "internalType": "uint256",
              "name": "timestamp",
              "type": "uint256"
            }
          ],
          "internalType": "struct FheSalarySystem.SalaryRecord[]",
          "name": "",
          "type": "tuple[]"
        }
      ],
      "stateMutability": "view",
      "type": "function"
    },
    {
      "inputs": [],
      "name": "getContractEncryptedBalance",
      "outputs": [
        {
          "internalType": "euint64",
          "name": "",
          "type": "bytes32"
        }
      ],
      "stateMutability": "view",
      "type": "function"
    },
    {
      "inputs": [],
      "name": "getEmployeeCount",
      "outputs": [
        {
          "internalType": "uint256",
          "name": "",
          "type": "uint256"
        }
      ],
      "stateMutability": "view",
      "type": "function"
    },
    {
      "inputs": [],
      "name": "getEncryptedBalance",
      "outputs": [
        {
          "internalType": "euint64",
          "name": "",
          "type": "bytes32"
        }
      ],
      "stateMutability": "view",
      "type": "function"
    },
    {
      "inputs": [],
      "name": "getMySalaryRecords",
      "outputs": [
        {
          "components": [
            {
              "internalType": "address",
              "name": "employee",
              "type": "address"
            },
            {
              "internalType": "euint64",
              "name": "encryptedAmount",
              "type": "bytes32"
            },
            {
              "internalType": "uint256",
              "name": "timestamp",
              "type": "uint256"
            }
          ],
          "internalType": "struct FheSalarySystem.SalaryRecord[]",
          "name": "",
          "type": "tuple[]"
        }
      ],
      "stateMutability": "view",
      "type": "function"
    },
    {
      "inputs": [
        {
          "internalType": "address",
          "name": "user",
          "type": "address"
        }
      ],
      "name": "getUserRole",
      "outputs": [
        {
          "internalType": "enum FheSalarySystem.UserRole",
          "name": "",
          "type": "uint8"
        }
      ],
      "stateMutability": "view",
      "type": "function"
    },
    {
      "inputs": [
        {
          "internalType": "bool",
          "name": "_status",
          "type": "bool"
        }
      ],
      "name": "pauseContract",
      "outputs": [],
      "stateMutability": "nonpayable",
      "type": "function"
    },
    {
      "inputs": [
        {
          "internalType": "uint256",
          "name": "",
          "type": "uint256"
        }
      ],
      "name": "salaryRecords",
      "outputs": [
        {
          "internalType": "address",
          "name": "employee",
          "type": "address"
        },
        {
          "internalType": "euint64",
          "name": "encryptedAmount",
          "type": "bytes32"
        },
        {
          "internalType": "uint256",
          "name": "timestamp",
          "type": "uint256"
        }
      ],
      "stateMutability": "view",
      "type": "function"
    },
    {
      "inputs": [],
      "name": "salaryToken",
      "outputs": [
        {
          "internalType": "contract SalaryToken",
          "name": "",
          "type": "address"
        }
      ],
      "stateMutability": "view",
      "type": "function"
    },
    {
      "inputs": [
        {
          "internalType": "address",
          "name": "_employee",
          "type": "address"
        },
        {
          "internalType": "externalEuint64",
          "name": "encryptedAmount",
          "type": "bytes32"
        },
        {
          "internalType": "bytes",
          "name": "inputProof",
          "type": "bytes"
        }
      ],
      "name": "sendEncryptedSalary",
      "outputs": [],
      "stateMutability": "nonpayable",
      "type": "function"
    },
    {
      "inputs": [
        {
          "internalType": "address",
          "name": "_employee",
          "type": "address"
        },
        {
          "internalType": "externalEuint64",
          "name": "encryptedAmount",
          "type": "bytes32"
        },
        {
          "internalType": "bytes",
          "name": "inputProof",
          "type": "bytes"
        }
      ],
      "name": "sendEncryptedSalaryTest",
      "outputs": [],
      "stateMutability": "nonpayable",
      "type": "function"
    },
    {
      "inputs": [
        {
          "internalType": "externalEuint64",
          "name": "encryptedAmount",
          "type": "bytes32"
        },
        {
          "internalType": "bytes",
          "name": "inputProof",
          "type": "bytes"
        }
      ],
      "name": "withdraw",
      "outputs": [],
      "stateMutability": "nonpayable",
      "type": "function"
    }
  ],
  "bytecode": "0x60a060405234801561001057600080fd5b506040516151943803806151948339818101604052810190610032919061012a565b3373ffffffffffffffffffffffffffffffffffffffff1660808173ffffffffffffffffffffffffffffffffffffffff168152505060008060006101000a81548160ff02191690831515021790555080600560006101000a81548173ffffffffffffffffffffffffffffffffffffffff021916908373ffffffffffffffffffffffffffffffffffffffff16021790555050610157565b600080fd5b600073ffffffffffffffffffffffffffffffffffffffff82169050919050565b60006100f7826100cc565b9050919050565b610107816100ec565b811461011257600080fd5b50565b600081519050610124816100fe565b92915050565b6000602082840312156101405761013f6100c7565b5b600061014e84828501610115565b91505092915050565b608051614fb96101db6000396000818161071d015281816107e101528181610d7901528181610e3e01528181610f760152818161109f015281816112e201528181611601015281816117a70152818161184a01528181611c6601528181612147015281816126e50152818161275201528181612ab90152612add0152614fb96000f3fe608060405234801561001057600080fd5b506004361061014d5760003560e01c8063c3b2d07a116100c3578063e272b8921161007c578063e272b89214610383578063e3366fed1461039f578063e8665709146103bd578063eca33f2e146103d9578063f851a440146103f5578063fcb32c32146104135761014d565b8063c3b2d07a146102a6578063c4e7a225146102d6578063d0678947146102e0578063d4b5a9c214610315578063d603234014610333578063d67d480b146103515761014d565b80635acdf4a4116101155780635acdf4a4146101f65780635b676b77146102145780638a67456a146102305780639424fa631461024e578063a57f5f581461026a578063c2a63e3b146102885761014d565b80630589e851146101525780632782085114610170578063446f088e146101a057806346f4b6df146101bc5780634a2e35ba146101da575b600080fd5b61015a61042f565b60405161016791906135c1565b60405180910390f35b61018a60048036038101906101859190613619565b610719565b60405161019791906136bd565b60405180910390f35b6101ba60048036038101906101b591906137e9565b6107df565b005b6101c4610ab4565b6040516101d191906138ac565b60405180910390f35b6101f460048036038101906101ef9190613949565b610abe565b005b6101fe610d51565b60405161020b9190613a08565b60405180910390f35b61022e60048036038101906102299190613a4f565b610d77565b005b610238610f63565b6040516102459190613a97565b60405180910390f35b61026860048036038101906102639190613949565b610f74565b005b6102726111c7565b60405161027f91906138ac565b60405180910390f35b610290611294565b60405161029d9190613ac1565b60405180910390f35b6102c060048036038101906102bb9190613b08565b6112a1565b6040516102cd9190613b44565b60405180910390f35b6102de6112e0565b005b6102fa60048036038101906102f59190613619565b6113fc565b60405161030c96959493929190613bef565b60405180910390f35b61031d6115f7565b60405161032a91906138ac565b60405180910390f35b61033b6115fd565b60405161034891906135c1565b60405180910390f35b61036b60048036038101906103669190613b08565b61174b565b60405161037a93929190613c65565b60405180910390f35b61039d60048036038101906103989190613cc8565b6117a5565b005b6103a7611846565b6040516103b49190613ee4565b60405180910390f35b6103d760048036038101906103d29190613f5c565b611c64565b005b6103f360048036038101906103ee9190614025565b612145565b005b6103fd612ab7565b60405161040a9190613b44565b60405180910390f35b61042d60048036038101906104289190614025565b612adb565b005b6060600260003373ffffffffffffffffffffffffffffffffffffffff1673ffffffffffffffffffffffffffffffffffffffff16815260200190815260200160002060030160009054906101000a900460ff166104b7576040517f0ae9c7ed00000000000000000000000000000000000000000000000000000000815260040160405180910390fd5b6000805b60068054905081101561055c573373ffffffffffffffffffffffffffffffffffffffff16600682815481106104f3576104f2614099565b5b906000526020600020906003020160000160009054906101000a900473ffffffffffffffffffffffffffffffffffffffff1673ffffffffffffffffffffffffffffffffffffffff160361054f57818061054b906140f7565b9250505b80806001019150506104bb565b5060008167ffffffffffffffff8111156105795761057861413f565b5b6040519080825280602002602001820160405280156105b257816020015b61059f61339f565b8152602001906001900390816105975790505b5090506000805b60068054905081101561070f573373ffffffffffffffffffffffffffffffffffffffff16600682815481106105f1576105f0614099565b5b906000526020600020906003020160000160009054906101000a900473ffffffffffffffffffffffffffffffffffffffff1673ffffffffffffffffffffffffffffffffffffffff1603610702576006818154811061065257610651614099565b5b90600052602060002090600302016040518060600160405290816000820160009054906101000a900473ffffffffffffffffffffffffffffffffffffffff1673ffffffffffffffffffffffffffffffffffffffff1673ffffffffffffffffffffffffffffffffffffffff168152602001600182015481526020016002820154815250508383815181106106e8576106e7614099565b5b602002602001018190525081806106fe906140f7565b9250505b80806001019150506105b9565b5081935050505090565b60007f000000000000000000000000000000000000000000000000000000000000000073ffffffffffffffffffffffffffffffffffffffff168273ffffffffffffffffffffffffffffffffffffffff160361077757600290506107da565b600260008373ffffffffffffffffffffffffffffffffffffffff1673ffffffffffffffffffffffffffffffffffffffff16815260200190815260200160002060030160009054906101000a900460ff16156107d557600190506107da565b600090505b919050565b7f000000000000000000000000000000000000000000000000000000000000000073ffffffffffffffffffffffffffffffffffffffff163373ffffffffffffffffffffffffffffffffffffffff1614610864576040517f7bfa4b9f00000000000000000000000000000000000000000000000000000000815260040160405180910390fd5b60008054906101000a900460ff16156108a9576040517fab35696f00000000000000000000000000000000000000000000000000000000815260040160405180910390fd5b7f2ffc3e483a7c31f94c6b87bd8b5d56a9d6f7baf48cf234dd644574f16a2b046160646040516108d991906141a9565b60405180910390a160008686905011610927576040517f08c379a000000000000000000000000000000000000000000000000000000000815260040161091e90614210565b60405180910390fd5b7f2ffc3e483a7c31f94c6b87bd8b5d56a9d6f7baf48cf234dd644574f16a2b04616065604051610957919061426b565b60405180910390a1838390508686905014158061097a5750818190508686905014155b156109b1576040517fa121188700000000000000000000000000000000000000000000000000000000815260040160405180910390fd5b7f2ffc3e483a7c31f94c6b87bd8b5d56a9d6f7baf48cf234dd644574f16a2b046160666040516109e191906142c1565b60405180910390a160005b86869050811015610aab577f2ffc3e483a7c31f94c6b87bd8b5d56a9d6f7baf48cf234dd644574f16a2b04616067604051610a279190614317565b60405180910390a1610a9e878783818110610a4557610a44614099565b5b9050602002016020810190610a5a9190613619565b868684818110610a6d57610a6c614099565b5b90506020020135858585818110610a8757610a86614099565b5b9050602002810190610a999190614341565b612145565b80806001019150506109ec565b50505050505050565b6000600154905090565b600260003373ffffffffffffffffffffffffffffffffffffffff1673ffffffffffffffffffffffffffffffffffffffff16815260200190815260200160002060030160009054906101000a900460ff16610b44576040517f0ae9c7ed00000000000000000000000000000000000000000000000000000000815260040160405180910390fd5b6000610b948484848080601f016020809104026020016040519081016040528093929190818152602001838380828437600081840152601f19601f82011690508083019250505050505050612be3565b90506000600360003373ffffffffffffffffffffffffffffffffffffffff1673ffffffffffffffffffffffffffffffffffffffff168152602001908152602001600020549050610be381612c79565b610c19576040517f639ffae100000000000000000000000000000000000000000000000000000000815260040160405180910390fd5b610c238183612c89565b600360003373ffffffffffffffffffffffffffffffffffffffff1673ffffffffffffffffffffffffffffffffffffffff16815260200190815260200160002081905550610cae600360003373ffffffffffffffffffffffffffffffffffffffff1673ffffffffffffffffffffffffffffffffffffffff16815260200190815260200160002054612cd3565b50610cf8600360003373ffffffffffffffffffffffffffffffffffffffff1673ffffffffffffffffffffffffffffffffffffffff1681526020019081526020016000205433612d01565b503373ffffffffffffffffffffffffffffffffffffffff167fe7e6394348925b2a76784041838f435af00fc0fc0f65fda3bff628b7c87628336000801b604051610d4291906143b3565b60405180910390a25050505050565b600560009054906101000a900473ffffffffffffffffffffffffffffffffffffffff1681565b7f000000000000000000000000000000000000000000000000000000000000000073ffffffffffffffffffffffffffffffffffffffff163373ffffffffffffffffffffffffffffffffffffffff1614610dfc576040517f7bfa4b9f00000000000000000000000000000000000000000000000000000000815260040160405180910390fd5b610e07600154612c79565b610e175780600181905550610e2a565b610e2360015482612d30565b6001819055505b610e35600154612cd3565b50610e626001547f0000000000000000000000000000000000000000000000000000000000000000612d01565b50610e8f81600560009054906101000a900473ffffffffffffffffffffffffffffffffffffffff16612d01565b50610ebc81600560009054906101000a900473ffffffffffffffffffffffffffffffffffffffff16612d7a565b50600560009054906101000a900473ffffffffffffffffffffffffffffffffffffffff1673ffffffffffffffffffffffffffffffffffffffff1663eb3155b53330846040518463ffffffff1660e01b8152600401610f1c939291906143ce565b6020604051808303816000875af1158015610f3b573d6000803e3d6000fd5b505050506040513d601f19601f82011682018060405250810190610f5f919061441a565b5050565b60008054906101000a900460ff1681565b7f000000000000000000000000000000000000000000000000000000000000000073ffffffffffffffffffffffffffffffffffffffff163373ffffffffffffffffffffffffffffffffffffffff1614610ff9576040517f7bfa4b9f00000000000000000000000000000000000000000000000000000000815260040160405180910390fd5b60006110498484848080601f016020809104026020016040519081016040528093929190818152602001838380828437600081840152601f19601f82011690508083019250505050505050612be3565b9050611056600154612c79565b6110665780600181905550611079565b61107260015482612d30565b6001819055505b61108560015482612d30565b600181905550611096600154612cd3565b506110c36001547f0000000000000000000000000000000000000000000000000000000000000000612d01565b506110f081600560009054906101000a900473ffffffffffffffffffffffffffffffffffffffff16612d01565b5061111d81600560009054906101000a900473ffffffffffffffffffffffffffffffffffffffff16612d7a565b50600560009054906101000a900473ffffffffffffffffffffffffffffffffffffffff1673ffffffffffffffffffffffffffffffffffffffff1663eb3155b53330846040518463ffffffff1660e01b815260040161117d939291906143ce565b6020604051808303816000875af115801561119c573d6000803e3d6000fd5b505050506040513d601f19601f820116820180604052508101906111c0919061441a565b5050505050565b6000600260003373ffffffffffffffffffffffffffffffffffffffff1673ffffffffffffffffffffffffffffffffffffffff16815260200190815260200160002060030160009054906101000a900460ff1661124f576040517f0ae9c7ed00000000000000000000000000000000000000000000000000000000815260040160405180910390fd5b600360003373ffffffffffffffffffffffffffffffffffffffff1673ffffffffffffffffffffffffffffffffffffffff16815260200190815260200160002054905090565b6000600480549050905090565b600481815481106112b157600080fd5b906000526020600020016000915054906101000a900473ffffffffffffffffffffffffffffffffffffffff1681565b7f000000000000000000000000000000000000000000000000000000000000000073ffffffffffffffffffffffffffffffffffffffff163373ffffffffffffffffffffffffffffffffffffffff1614611365576040517f7bfa4b9f00000000000000000000000000000000000000000000000000000000815260040160405180910390fd5b600560009054906101000a900473ffffffffffffffffffffffffffffffffffffffff1673ffffffffffffffffffffffffffffffffffffffff1663d4febb963065ffffffffffff6040518363ffffffff1660e01b81526004016113c8929190614468565b600060405180830381600087803b1580156113e257600080fd5b505af11580156113f6573d6000803e3d6000fd5b50505050565b600260205280600052604060002060009150905080600001805461141f906144c0565b80601f016020809104026020016040519081016040528092919081815260200182805461144b906144c0565b80156114985780601f1061146d57610100808354040283529160200191611498565b820191906000526020600020905b81548152906001019060200180831161147b57829003601f168201915b5050505050908060010180546114ad906144c0565b80601f01602080910402602001604051908101604052809291908181526020018280546114d9906144c0565b80156115265780601f106114fb57610100808354040283529160200191611526565b820191906000526020600020905b81548152906001019060200180831161150957829003601f168201915b50505050509080600201805461153b906144c0565b80601f0160208091040260200160405190810160405280929190818152602001828054611567906144c0565b80156115b45780601f10611589576101008083540402835291602001916115b4565b820191906000526020600020905b81548152906001019060200180831161159757829003601f168201915b5050505050908060030160009054906101000a900460ff16908060030160019054906101000a900460ff16908060030160029054906101000a900460ff16905086565b60015481565b60607f000000000000000000000000000000000000000000000000000000000000000073ffffffffffffffffffffffffffffffffffffffff163373ffffffffffffffffffffffffffffffffffffffff1614611684576040517f7bfa4b9f00000000000000000000000000000000000000000000000000000000815260040160405180910390fd5b6006805480602002602001604051908101604052809291908181526020016000905b8282101561174257838290600052602060002090600302016040518060600160405290816000820160009054906101000a900473ffffffffffffffffffffffffffffffffffffffff1673ffffffffffffffffffffffffffffffffffffffff1673ffffffffffffffffffffffffffffffffffffffff16815260200160018201548152602001600282015481525050815260200190600101906116a6565b50505050905090565b6006818154811061175b57600080fd5b90600052602060002090600302016000915090508060000160009054906101000a900473ffffffffffffffffffffffffffffffffffffffff16908060010154908060020154905083565b7f000000000000000000000000000000000000000000000000000000000000000073ffffffffffffffffffffffffffffffffffffffff163373ffffffffffffffffffffffffffffffffffffffff161461182a576040517f7bfa4b9f00000000000000000000000000000000000000000000000000000000815260040160405180910390fd5b806000806101000a81548160ff02191690831515021790555050565b60607f000000000000000000000000000000000000000000000000000000000000000073ffffffffffffffffffffffffffffffffffffffff163373ffffffffffffffffffffffffffffffffffffffff16146118cd576040517f7bfa4b9f00000000000000000000000000000000000000000000000000000000815260040160405180910390fd5b600060048054905067ffffffffffffffff8111156118ee576118ed61413f565b5b60405190808252806020026020018201604052801561192757816020015b6119146133d9565b81526020019060019003908161190c5790505b50905060005b600480549050811015611c5c5760405180604001604052806004838154811061195957611958614099565b5b9060005260206000200160009054906101000a900473ffffffffffffffffffffffffffffffffffffffff1673ffffffffffffffffffffffffffffffffffffffff16815260200160026000600485815481106119b7576119b6614099565b5b9060005260206000200160009054906101000a900473ffffffffffffffffffffffffffffffffffffffff1673ffffffffffffffffffffffffffffffffffffffff1673ffffffffffffffffffffffffffffffffffffffff1681526020019081526020016000206040518060c0016040529081600082018054611a37906144c0565b80601f0160208091040260200160405190810160405280929190818152602001828054611a63906144c0565b8015611ab05780601f10611a8557610100808354040283529160200191611ab0565b820191906000526020600020905b815481529060010190602001808311611a9357829003601f168201915b50505050508152602001600182018054611ac9906144c0565b80601f0160208091040260200160405190810160405280929190818152602001828054611af5906144c0565b8015611b425780601f10611b1757610100808354040283529160200191611b42565b820191906000526020600020905b815481529060010190602001808311611b2557829003601f168201915b50505050508152602001600282018054611b5b906144c0565b80601f0160208091040260200160405190810160405280929190818152602001828054611b87906144c0565b8015611bd45780601f10611ba957610100808354040283529160200191611bd4565b820191906000526020600020905b815481529060010190602001808311611bb757829003601f168201915b505050505081526020016003820160009054906101000a900460ff161515151581526020016003820160019054906101000a900460ff161515151581526020016003820160029054906101000a900460ff161515151581525050815250828281518110611c4457611c43614099565b5b6020026020010181905250808060010191505061192d565b508091505090565b7f000000000000000000000000000000000000000000000000000000000000000073ffffffffffffffffffffffffffffffffffffffff163373ffffffffffffffffffffffffffffffffffffffff1614611ce9576040517f7bfa4b9f00000000000000000000000000000000000000000000000000000000815260040160405180910390fd5b60008054906101000a900460ff1615611d2e576040517fab35696f00000000000000000000000000000000000000000000000000000000815260040160405180910390fd5b600073ffffffffffffffffffffffffffffffffffffffff168773ffffffffffffffffffffffffffffffffffffffff1603611d9d576040517f08c379a0000000000000000000000000000000000000000000000000000000008152600401611d949061453d565b60405180910390fd5b60008686905011611de3576040517f08c379a0000000000000000000000000000000000000000000000000000000008152600401611dda906145a9565b60405180910390fd5b60008484905011611e29576040517f08c379a0000000000000000000000000000000000000000000000000000000008152600401611e2090614615565b60405180910390fd5b600260008873ffffffffffffffffffffffffffffffffffffffff1673ffffffffffffffffffffffffffffffffffffffff16815260200190815260200160002060030160009054906101000a900460ff1615611eb0576040517f4d1b9f2d00000000000000000000000000000000000000000000000000000000815260040160405180910390fd5b6040518060c0016040528087878080601f016020809104026020016040519081016040528093929190818152602001838380828437600081840152601f19601f82011690508083019250505050505050815260200185858080601f016020809104026020016040519081016040528093929190818152602001838380828437600081840152601f19601f82011690508083019250505050505050815260200183838080601f016020809104026020016040519081016040528093929190818152602001838380828437600081840152601f19601f82011690508083019250505050505050815260200160011515815260200160001515815260200160001515815250600260008973ffffffffffffffffffffffffffffffffffffffff1673ffffffffffffffffffffffffffffffffffffffff168152602001908152602001600020600082015181600001908161200691906147d7565b50602082015181600101908161201c91906147d7565b50604082015181600201908161203291906147d7565b5060608201518160030160006101000a81548160ff02191690831515021790555060808201518160030160016101000a81548160ff02191690831515021790555060a08201518160030160026101000a81548160ff0219169083151502179055509050506004879080600181540180825580915050600190039060005260206000200160009091909190916101000a81548173ffffffffffffffffffffffffffffffffffffffff021916908373ffffffffffffffffffffffffffffffffffffffff1602179055508673ffffffffffffffffffffffffffffffffffffffff167f041109cfe10cfa549abb66b986d0a294ecc6c9ad39000abcb9c2afd422c8bd6460405160405180910390a250505050505050565b7f000000000000000000000000000000000000000000000000000000000000000073ffffffffffffffffffffffffffffffffffffffff163373ffffffffffffffffffffffffffffffffffffffff16146121ca576040517f7bfa4b9f00000000000000000000000000000000000000000000000000000000815260040160405180910390fd5b60008054906101000a900460ff161561220f576040517fab35696f00000000000000000000000000000000000000000000000000000000815260040160405180910390fd5b7f2ffc3e483a7c31f94c6b87bd8b5d56a9d6f7baf48cf234dd644574f16a2b0461600160405161223f91906148e4565b60405180910390a1600073ffffffffffffffffffffffffffffffffffffffff168473ffffffffffffffffffffffffffffffffffffffff16036122b6576040517f08c379a00000000000000000000000000000000000000000000000000000000081526004016122ad9061453d565b60405180910390fd5b600260008573ffffffffffffffffffffffffffffffffffffffff1673ffffffffffffffffffffffffffffffffffffffff16815260200190815260200160002060030160009054906101000a900460ff1661233c576040517fbae1574e00000000000000000000000000000000000000000000000000000000815260040160405180910390fd5b7f2ffc3e483a7c31f94c6b87bd8b5d56a9d6f7baf48cf234dd644574f16a2b0461600260405161236c919061493a565b60405180910390a160006123c48484848080601f016020809104026020016040519081016040528093929190818152602001838380828437600081840152601f19601f82011690508083019250505050505050612be3565b90507f2ffc3e483a7c31f94c6b87bd8b5d56a9d6f7baf48cf234dd644574f16a2b046160036040516123f69190614990565b60405180910390a1612446600360008773ffffffffffffffffffffffffffffffffffffffff1673ffffffffffffffffffffffffffffffffffffffff16815260200190815260200160002054612c79565b6124cb577f2ffc3e483a7c31f94c6b87bd8b5d56a9d6f7baf48cf234dd644574f16a2b0461600460405161247a91906149e6565b60405180910390a180600360008773ffffffffffffffffffffffffffffffffffffffff1673ffffffffffffffffffffffffffffffffffffffff16815260200190815260200160002081905550612590565b7f2ffc3e483a7c31f94c6b87bd8b5d56a9d6f7baf48cf234dd644574f16a2b046160056040516124fb9190614a3c565b60405180910390a161254c600360008773ffffffffffffffffffffffffffffffffffffffff1673ffffffffffffffffffffffffffffffffffffffff1681526020019081526020016000205482612d30565b600360008773ffffffffffffffffffffffffffffffffffffffff1673ffffffffffffffffffffffffffffffffffffffff168152602001908152602001600020819055505b7f2ffc3e483a7c31f94c6b87bd8b5d56a9d6f7baf48cf234dd644574f16a2b046160066040516125c09190614a92565b60405180910390a1612610600360008773ffffffffffffffffffffffffffffffffffffffff1673ffffffffffffffffffffffffffffffffffffffff16815260200190815260200160002054612cd3565b5061265a600360008773ffffffffffffffffffffffffffffffffffffffff1673ffffffffffffffffffffffffffffffffffffffff1681526020019081526020016000205486612d01565b507f2ffc3e483a7c31f94c6b87bd8b5d56a9d6f7baf48cf234dd644574f16a2b0461600760405161268b9190614ae8565b60405180910390a161269f60015482612c89565b6001819055507f2ffc3e483a7c31f94c6b87bd8b5d56a9d6f7baf48cf234dd644574f16a2b046160086040516126d59190614b3e565b60405180910390a16127096001547f0000000000000000000000000000000000000000000000000000000000000000612d01565b507f2ffc3e483a7c31f94c6b87bd8b5d56a9d6f7baf48cf234dd644574f16a2b0461600960405161273a9190614b94565b60405180910390a161274b81612cd3565b50612776817f0000000000000000000000000000000000000000000000000000000000000000612d01565b506127818186612d01565b506127ae81600560009054906101000a900473ffffffffffffffffffffffffffffffffffffffff16612d01565b507f2ffc3e483a7c31f94c6b87bd8b5d56a9d6f7baf48cf234dd644574f16a2b0461600a6040516127df9190614bea565b60405180910390a161281381600560009054906101000a900473ffffffffffffffffffffffffffffffffffffffff16612d7a565b507f2ffc3e483a7c31f94c6b87bd8b5d56a9d6f7baf48cf234dd644574f16a2b0461600b6040516128449190614c40565b60405180910390a18473ffffffffffffffffffffffffffffffffffffffff167f041109cfe10cfa549abb66b986d0a294ecc6c9ad39000abcb9c2afd422c8bd6460405160405180910390a27f2ffc3e483a7c31f94c6b87bd8b5d56a9d6f7baf48cf234dd644574f16a2b0461600c6040516128bf9190614c96565b60405180910390a1600560009054906101000a900473ffffffffffffffffffffffffffffffffffffffff1673ffffffffffffffffffffffffffffffffffffffff1663eb3155b53087846040518463ffffffff1660e01b8152600401612926939291906143ce565b6020604051808303816000875af1158015612945573d6000803e3d6000fd5b505050506040513d601f19601f82011682018060405250810190612969919061441a565b507f2ffc3e483a7c31f94c6b87bd8b5d56a9d6f7baf48cf234dd644574f16a2b0461600d60405161299a9190614cec565b60405180910390a1600660405180606001604052808773ffffffffffffffffffffffffffffffffffffffff16815260200183815260200142815250908060018154018082558091505060019003906000526020600020906003020160009091909190915060008201518160000160006101000a81548173ffffffffffffffffffffffffffffffffffffffff021916908373ffffffffffffffffffffffffffffffffffffffff160217905550602082015181600101556040820151816002015550506001600680549050612a6d9190614d07565b8573ffffffffffffffffffffffffffffffffffffffff167f85325c3f7af451784fc5a59ef09ff82491f1a8904b6db7d191b4557e81176fd060405160405180910390a35050505050565b7f000000000000000000000000000000000000000000000000000000000000000081565b7f000000000000000000000000000000000000000000000000000000000000000073ffffffffffffffffffffffffffffffffffffffff163373ffffffffffffffffffffffffffffffffffffffff1614612b60576040517f7bfa4b9f00000000000000000000000000000000000000000000000000000000815260040160405180910390fd5b60008054906101000a900460ff1615612ba5576040517fab35696f00000000000000000000000000000000000000000000000000000000815260040160405180910390fd5b7f2ffc3e483a7c31f94c6b87bd8b5d56a9d6f7baf48cf234dd644574f16a2b04616001604051612bd591906148e4565b60405180910390a150505050565b600080825114612c0057612bf983836005612da9565b9050612c73565b60008390506000801b8103612c2157612c196000612ef7565b915050612c73565b612c2b8133612f15565b612c6e5780336040517f0276b5d9000000000000000000000000000000000000000000000000000000008152600401612c65929190614d3b565b60405180910390fd5b809150505b92915050565b60008060001b8214159050919050565b6000612c9483612c79565b612ca557612ca26000612ef7565b92505b612cae82612c79565b612cbf57612cbc6000612ef7565b91505b612ccb83836000612fcb565b905092915050565b6000612cde82612c79565b612cef57612cec6000612ef7565b91505b612cf982306130a3565b819050919050565b6000612d0c83612c79565b612d1d57612d1a6000612ef7565b92505b612d2783836130a3565b82905092915050565b6000612d3b83612c79565b612d4c57612d496000612ef7565b92505b612d5582612c79565b612d6657612d636000612ef7565b91505b612d7283836000613145565b905092915050565b6000612d8583612c79565b612d9657612d936000612ef7565b92505b612da0838361321d565b82905092915050565b600080612db46132bf565b90508060010160009054906101000a900473ffffffffffffffffffffffffffffffffffffffff1673ffffffffffffffffffffffffffffffffffffffff166308bf832a863387876040518563ffffffff1660e01b8152600401612e199493929190614e01565b6020604051808303816000875af1158015612e38573d6000803e3d6000fd5b505050506040513d601f19601f82011682018060405250810190612e5c9190614e79565b91508060000160009054906101000a900473ffffffffffffffffffffffffffffffffffffffff1673ffffffffffffffffffffffffffffffffffffffff16633e395cec83336040518363ffffffff1660e01b8152600401612ebd929190614d3b565b600060405180830381600087803b158015612ed757600080fd5b505af1158015612eeb573d6000803e3d6000fd5b50505050509392505050565b6000612f0e8267ffffffffffffffff1660056132e7565b9050919050565b600080612f206132bf565b90508060000160009054906101000a900473ffffffffffffffffffffffffffffffffffffffff1673ffffffffffffffffffffffffffffffffffffffff166382027b6d85856040518363ffffffff1660e01b8152600401612f81929190614d3b565b602060405180830381865afa158015612f9e573d6000803e3d6000fd5b505050506040513d601f19601f82011682018060405250810190612fc29190614ebb565b91505092915050565b6000808215612fe057600160f81b9050612fe8565b600060f81b90505b6000612ff26132bf565b90508060010160009054906101000a900473ffffffffffffffffffffffffffffffffffffffff1673ffffffffffffffffffffffffffffffffffffffff1663182b6d988787856040518463ffffffff1660e01b815260040161305593929190614f23565b6020604051808303816000875af1158015613074573d6000803e3d6000fd5b505050506040513d601f19601f820116820180604052508101906130989190614e79565b925050509392505050565b60006130ad6132bf565b90508060000160009054906101000a900473ffffffffffffffffffffffffffffffffffffffff1673ffffffffffffffffffffffffffffffffffffffff1663b9496b6284846040518363ffffffff1660e01b815260040161310e929190614d3b565b600060405180830381600087803b15801561312857600080fd5b505af115801561313c573d6000803e3d6000fd5b50505050505050565b600080821561315a57600160f81b9050613162565b600060f81b90505b600061316c6132bf565b90508060010160009054906101000a900473ffffffffffffffffffffffffffffffffffffffff1673ffffffffffffffffffffffffffffffffffffffff1663117b2f388787856040518463ffffffff1660e01b81526004016131cf93929190614f23565b6020604051808303816000875af11580156131ee573d6000803e3d6000fd5b505050506040513d601f19601f820116820180604052508101906132129190614e79565b925050509392505050565b60006132276132bf565b90508060000160009054906101000a900473ffffffffffffffffffffffffffffffffffffffff1673ffffffffffffffffffffffffffffffffffffffff16633e395cec84846040518363ffffffff1660e01b8152600401613288929190614d3b565b600060405180830381600087803b1580156132a257600080fd5b505af11580156132b6573d6000803e3d6000fd5b50505050505050565b60007f9e7b61f58c47dc699ac88507c4f5bb9f121c03808c5676a8078fe583e4649700905090565b6000806132f26132bf565b90508060010160009054906101000a900473ffffffffffffffffffffffffffffffffffffffff1673ffffffffffffffffffffffffffffffffffffffff16639cd07acb85856040518363ffffffff1660e01b8152600401613353929190614f5a565b6020604051808303816000875af1158015613372573d6000803e3d6000fd5b505050506040513d601f19601f820116820180604052508101906133969190614e79565b91505092915050565b6040518060600160405280600073ffffffffffffffffffffffffffffffffffffffff16815260200160008019168152602001600081525090565b6040518060400160405280600073ffffffffffffffffffffffffffffffffffffffff16815260200161340961340f565b81525090565b6040518060c001604052806060815260200160608152602001606081526020016000151581526020016000151581526020016000151581525090565b600081519050919050565b600082825260208201905092915050565b6000819050602082019050919050565b600073ffffffffffffffffffffffffffffffffffffffff82169050919050565b60006134a282613477565b9050919050565b6134b281613497565b82525050565b6000819050919050565b60006134cd826134b8565b9050919050565b6134dd816134c2565b82525050565b6000819050919050565b6134f6816134e3565b82525050565b60608201600082015161351260008501826134a9565b50602082015161352560208501826134d4565b50604082015161353860408501826134ed565b50505050565b600061354a83836134fc565b60608301905092915050565b6000602082019050919050565b600061356e8261344b565b6135788185613456565b935061358383613467565b8060005b838110156135b457815161359b888261353e565b97506135a683613556565b925050600181019050613587565b5085935050505092915050565b600060208201905081810360008301526135db8184613563565b905092915050565b600080fd5b600080fd5b6135f681613497565b811461360157600080fd5b50565b600081359050613613816135ed565b92915050565b60006020828403121561362f5761362e6135e3565b5b600061363d84828501613604565b91505092915050565b7f4e487b7100000000000000000000000000000000000000000000000000000000600052602160045260246000fd5b6003811061368657613685613646565b5b50565b600081905061369782613675565b919050565b60006136a782613689565b9050919050565b6136b78161369c565b82525050565b60006020820190506136d260008301846136ae565b92915050565b600080fd5b600080fd5b600080fd5b60008083601f8401126136fd576136fc6136d8565b5b8235905067ffffffffffffffff81111561371a576137196136dd565b5b602083019150836020820283011115613736576137356136e2565b5b9250929050565b60008083601f840112613753576137526136d8565b5b8235905067ffffffffffffffff8111156137705761376f6136dd565b5b60208301915083602082028301111561378c5761378b6136e2565b5b9250929050565b60008083601f8401126137a9576137a86136d8565b5b8235905067ffffffffffffffff8111156137c6576137c56136dd565b5b6020830191508360208202830111156137e2576137e16136e2565b5b9250929050565b60008060008060008060608789031215613806576138056135e3565b5b600087013567ffffffffffffffff811115613824576138236135e8565b5b61383089828a016136e7565b9650965050602087013567ffffffffffffffff811115613853576138526135e8565b5b61385f89828a0161373d565b9450945050604087013567ffffffffffffffff811115613882576138816135e8565b5b61388e89828a01613793565b92509250509295509295509295565b6138a6816134c2565b82525050565b60006020820190506138c1600083018461389d565b92915050565b6138d0816134b8565b81146138db57600080fd5b50565b6000813590506138ed816138c7565b92915050565b60008083601f840112613909576139086136d8565b5b8235905067ffffffffffffffff811115613926576139256136dd565b5b602083019150836001820283011115613942576139416136e2565b5b9250929050565b600080600060408486031215613962576139616135e3565b5b6000613970868287016138de565b935050602084013567ffffffffffffffff811115613991576139906135e8565b5b61399d868287016138f3565b92509250509250925092565b6000819050919050565b60006139ce6139c96139c484613477565b6139a9565b613477565b9050919050565b60006139e0826139b3565b9050919050565b60006139f2826139d5565b9050919050565b613a02816139e7565b82525050565b6000602082019050613a1d60008301846139f9565b92915050565b613a2c816134b8565b8114613a3757600080fd5b50565b600081359050613a4981613a23565b92915050565b600060208284031215613a6557613a646135e3565b5b6000613a7384828501613a3a565b91505092915050565b60008115159050919050565b613a9181613a7c565b82525050565b6000602082019050613aac6000830184613a88565b92915050565b613abb816134e3565b82525050565b6000602082019050613ad66000830184613ab2565b92915050565b613ae5816134e3565b8114613af057600080fd5b50565b600081359050613b0281613adc565b92915050565b600060208284031215613b1e57613b1d6135e3565b5b6000613b2c84828501613af3565b91505092915050565b613b3e81613497565b82525050565b6000602082019050613b596000830184613b35565b92915050565b600081519050919050565b600082825260208201905092915050565b60005b83811015613b99578082015181840152602081019050613b7e565b60008484015250505050565b6000601f19601f8301169050919050565b6000613bc182613b5f565b613bcb8185613b6a565b9350613bdb818560208601613b7b565b613be481613ba5565b840191505092915050565b600060c0820190508181036000830152613c098189613bb6565b90508181036020830152613c1d8188613bb6565b90508181036040830152613c318187613bb6565b9050613c406060830186613a88565b613c4d6080830185613a88565b613c5a60a0830184613a88565b979650505050505050565b6000606082019050613c7a6000830186613b35565b613c87602083018561389d565b613c946040830184613ab2565b949350505050565b613ca581613a7c565b8114613cb057600080fd5b50565b600081359050613cc281613c9c565b92915050565b600060208284031215613cde57613cdd6135e3565b5b6000613cec84828501613cb3565b91505092915050565b600081519050919050565b600082825260208201905092915050565b6000819050602082019050919050565b600082825260208201905092915050565b6000613d3d82613b5f565b613d478185613d21565b9350613d57818560208601613b7b565b613d6081613ba5565b840191505092915050565b613d7481613a7c565b82525050565b600060c0830160008301518482036000860152613d978282613d32565b91505060208301518482036020860152613db18282613d32565b91505060408301518482036040860152613dcb8282613d32565b9150506060830151613de06060860182613d6b565b506080830151613df36080860182613d6b565b5060a0830151613e0660a0860182613d6b565b508091505092915050565b6000604083016000830151613e2960008601826134a9565b5060208301518482036020860152613e418282613d7a565b9150508091505092915050565b6000613e5a8383613e11565b905092915050565b6000602082019050919050565b6000613e7a82613cf5565b613e848185613d00565b935083602082028501613e9685613d11565b8060005b85811015613ed25784840389528151613eb38582613e4e565b9450613ebe83613e62565b925060208a01995050600181019050613e9a565b50829750879550505050505092915050565b60006020820190508181036000830152613efe8184613e6f565b905092915050565b60008083601f840112613f1c57613f1b6136d8565b5b8235905067ffffffffffffffff811115613f3957613f386136dd565b5b602083019150836001820283011115613f5557613f546136e2565b5b9250929050565b60008060008060008060006080888a031215613f7b57613f7a6135e3565b5b6000613f898a828b01613604565b975050602088013567ffffffffffffffff811115613faa57613fa96135e8565b5b613fb68a828b01613f06565b9650965050604088013567ffffffffffffffff811115613fd957613fd86135e8565b5b613fe58a828b01613f06565b9450945050606088013567ffffffffffffffff811115614008576140076135e8565b5b6140148a828b01613f06565b925092505092959891949750929550565b6000806000806060858703121561403f5761403e6135e3565b5b600061404d87828801613604565b945050602061405e878288016138de565b935050604085013567ffffffffffffffff81111561407f5761407e6135e8565b5b61408b878288016138f3565b925092505092959194509250565b7f4e487b7100000000000000000000000000000000000000000000000000000000600052603260045260246000fd5b7f4e487b7100000000000000000000000000000000000000000000000000000000600052601160045260246000fd5b6000614102826134e3565b91507fffffffffffffffffffffffffffffffffffffffffffffffffffffffffffffffff8203614134576141336140c8565b5b600182019050919050565b7f4e487b7100000000000000000000000000000000000000000000000000000000600052604160045260246000fd5b6000819050919050565b600061419361418e6141898461416e565b6139a9565b6134e3565b9050919050565b6141a381614178565b82525050565b60006020820190506141be600083018461419a565b92915050565b7f4e6f20656d706c6f796565732070726f76696465640000000000000000000000600082015250565b60006141fa601583613b6a565b9150614205826141c4565b602082019050919050565b60006020820190508181036000830152614229816141ed565b9050919050565b6000819050919050565b600061425561425061424b84614230565b6139a9565b6134e3565b9050919050565b6142658161423a565b82525050565b6000602082019050614280600083018461425c565b92915050565b6000819050919050565b60006142ab6142a66142a184614286565b6139a9565b6134e3565b9050919050565b6142bb81614290565b82525050565b60006020820190506142d660008301846142b2565b92915050565b6000819050919050565b60006143016142fc6142f7846142dc565b6139a9565b6134e3565b9050919050565b614311816142e6565b82525050565b600060208201905061432c6000830184614308565b92915050565b600080fd5b600080fd5b600080fd5b6000808335600160200384360303811261435e5761435d614332565b5b80840192508235915067ffffffffffffffff8211156143805761437f614337565b5b60208301925060018202360383131561439c5761439b61433c565b5b509250929050565b6143ad816134b8565b82525050565b60006020820190506143c860008301846143a4565b92915050565b60006060820190506143e36000830186613b35565b6143f06020830185613b35565b6143fd604083018461389d565b949350505050565b60008151905061441481613a23565b92915050565b6000602082840312156144305761442f6135e3565b5b600061443e84828501614405565b91505092915050565b600065ffffffffffff82169050919050565b61446281614447565b82525050565b600060408201905061447d6000830185613b35565b61448a6020830184614459565b9392505050565b7f4e487b7100000000000000000000000000000000000000000000000000000000600052602260045260246000fd5b600060028204905060018216806144d857607f821691505b6020821081036144eb576144ea614491565b5b50919050565b7f496e76616c696420656d706c6f79656520616464726573730000000000000000600082015250565b6000614527601883613b6a565b9150614532826144f1565b602082019050919050565b600060208201905081810360008301526145568161451a565b9050919050565b7f4e616d652063616e6e6f7420626520656d707479000000000000000000000000600082015250565b6000614593601483613b6a565b915061459e8261455d565b602082019050919050565b600060208201905081810360008301526145c281614586565b9050919050565b7f456d61696c2063616e6e6f7420626520656d7074790000000000000000000000600082015250565b60006145ff601583613b6a565b915061460a826145c9565b602082019050919050565b6000602082019050818103600083015261462e816145f2565b9050919050565b60008190508160005260206000209050919050565b60006020601f8301049050919050565b600082821b905092915050565b6000600883026146977fffffffffffffffffffffffffffffffffffffffffffffffffffffffffffffffff8261465a565b6146a1868361465a565b95508019841693508086168417925050509392505050565b60006146d46146cf6146ca846134e3565b6139a9565b6134e3565b9050919050565b6000819050919050565b6146ee836146b9565b6147026146fa826146db565b848454614667565b825550505050565b600090565b61471761470a565b6147228184846146e5565b505050565b5b818110156147465761473b60008261470f565b600181019050614728565b5050565b601f82111561478b5761475c81614635565b6147658461464a565b81016020851015614774578190505b6147886147808561464a565b830182614727565b50505b505050565b600082821c905092915050565b60006147ae60001984600802614790565b1980831691505092915050565b60006147c7838361479d565b9150826002028217905092915050565b6147e082613b5f565b67ffffffffffffffff8111156147f9576147f861413f565b5b61480382546144c0565b61480e82828561474a565b600060209050601f831160018114614841576000841561482f578287015190505b61483985826147bb565b8655506148a1565b601f19841661484f86614635565b60005b8281101561487757848901518255600182019150602085019450602081019050614852565b868310156148945784890151614890601f89168261479d565b8355505b6001600288020188555050505b505050505050565b6000819050919050565b60006148ce6148c96148c4846148a9565b6139a9565b6134e3565b9050919050565b6148de816148b3565b82525050565b60006020820190506148f960008301846148d5565b92915050565b6000819050919050565b600061492461491f61491a846148ff565b6139a9565b6134e3565b9050919050565b61493481614909565b82525050565b600060208201905061494f600083018461492b565b92915050565b6000819050919050565b600061497a61497561497084614955565b6139a9565b6134e3565b9050919050565b61498a8161495f565b82525050565b60006020820190506149a56000830184614981565b92915050565b6000819050919050565b60006149d06149cb6149c6846149ab565b6139a9565b6134e3565b9050919050565b6149e0816149b5565b82525050565b60006020820190506149fb60008301846149d7565b92915050565b6000819050919050565b6000614a26614a21614a1c84614a01565b6139a9565b6134e3565b9050919050565b614a3681614a0b565b82525050565b6000602082019050614a516000830184614a2d565b92915050565b6000819050919050565b6000614a7c614a77614a7284614a57565b6139a9565b6134e3565b9050919050565b614a8c81614a61565b82525050565b6000602082019050614aa76000830184614a83565b92915050565b6000819050919050565b6000614ad2614acd614ac884614aad565b6139a9565b6134e3565b9050919050565b614ae281614ab7565b82525050565b6000602082019050614afd6000830184614ad9565b92915050565b6000819050919050565b6000614b28614b23614b1e84614b03565b6139a9565b6134e3565b9050919050565b614b3881614b0d565b82525050565b6000602082019050614b536000830184614b2f565b92915050565b6000819050919050565b6000614b7e614b79614b7484614b59565b6139a9565b6134e3565b9050919050565b614b8e81614b63565b82525050565b6000602082019050614ba96000830184614b85565b92915050565b6000819050919050565b6000614bd4614bcf614bca84614baf565b6139a9565b6134e3565b9050919050565b614be481614bb9565b82525050565b6000602082019050614bff6000830184614bdb565b92915050565b6000819050919050565b6000614c2a614c25614c2084614c05565b6139a9565b6134e3565b9050919050565b614c3a81614c0f565b82525050565b6000602082019050614c556000830184614c31565b92915050565b6000819050919050565b6000614c80614c7b614c7684614c5b565b6139a9565b6134e3565b9050919050565b614c9081614c65565b82525050565b6000602082019050614cab6000830184614c87565b92915050565b6000819050919050565b6000614cd6614cd1614ccc84614cb1565b6139a9565b6134e3565b9050919050565b614ce681614cbb565b82525050565b6000602082019050614d016000830184614cdd565b92915050565b6000614d12826134e3565b9150614d1d836134e3565b9250828203905081811115614d3557614d346140c8565b5b92915050565b6000604082019050614d5060008301856143a4565b614d5d6020830184613b35565b9392505050565b600081519050919050565b600082825260208201905092915050565b6000614d8b82614d64565b614d958185614d6f565b9350614da5818560208601613b7b565b614dae81613ba5565b840191505092915050565b60548110614dca57614dc9613646565b5b50565b6000819050614ddb82614db9565b919050565b6000614deb82614dcd565b9050919050565b614dfb81614de0565b82525050565b6000608082019050614e1660008301876143a4565b614e236020830186613b35565b8181036040830152614e358185614d80565b9050614e446060830184614df2565b95945050505050565b614e56816134b8565b8114614e6157600080fd5b50565b600081519050614e7381614e4d565b92915050565b600060208284031215614e8f57614e8e6135e3565b5b6000614e9d84828501614e64565b91505092915050565b600081519050614eb581613c9c565b92915050565b600060208284031215614ed157614ed06135e3565b5b6000614edf84828501614ea6565b91505092915050565b60007fff0000000000000000000000000000000000000000000000000000000000000082169050919050565b614f1d81614ee8565b82525050565b6000606082019050614f3860008301866143a4565b614f4560208301856143a4565b614f526040830184614f14565b949350505050565b6000604082019050614f6f6000830185613ab2565b614f7c6020830184614df2565b939250505056fea2646970667358221220659da6562097b019de8b103ea83d03719c64f754f96405e259cd0188cced9f7364736f6c634300081b0033",
  "linkReferences": {},
  "deployedLinkReferences": {}
}